{
  "_format": "hh-sol-artifact-1",
  "contractName": "OrganChain",
  "sourceName": "contracts/OrganChain.sol",
  "abi": [
    {
      "inputs": [
        {
          "internalType": "address",
          "name": "_donor_addr",
          "type": "address"
        },
        {
          "internalType": "string",
          "name": "_organ",
          "type": "string"
        },
        {
          "internalType": "string",
          "name": "_bloodgroup",
          "type": "string"
        }
      ],
      "name": "addDonor",
      "outputs": [],
      "stateMutability": "nonpayable",
      "type": "function"
    },
    {
      "inputs": [
        {
          "internalType": "address",
          "name": "_recipient_addr",
          "type": "address"
        },
        {
          "internalType": "address",
          "name": "_hospital_addr",
          "type": "address"
        },
        {
          "internalType": "string",
          "name": "_organ",
          "type": "string"
        },
        {
          "internalType": "string",
          "name": "_bloodgroup",
          "type": "string"
        }
      ],
      "name": "addRecipient",
      "outputs": [],
      "stateMutability": "nonpayable",
      "type": "function"
    },
    {
      "inputs": [
        {
          "internalType": "address",
          "name": "_donor_addr",
          "type": "address"
        }
      ],
      "name": "getDonor",
      "outputs": [
        {
          "internalType": "string",
          "name": "",
          "type": "string"
        },
        {
          "internalType": "string",
          "name": "",
          "type": "string"
        },
        {
          "internalType": "bool",
          "name": "",
          "type": "bool"
        },
        {
          "internalType": "address",
          "name": "",
          "type": "address"
        }
      ],
      "stateMutability": "view",
      "type": "function"
    },
    {
      "inputs": [
        {
          "internalType": "address",
          "name": "_recipient_addr",
          "type": "address"
        }
      ],
      "name": "getMatchedDonor",
      "outputs": [
        {
          "internalType": "address",
          "name": "",
          "type": "address"
        }
      ],
      "stateMutability": "view",
      "type": "function"
    },
    {
      "inputs": [
        {
          "internalType": "address",
          "name": "_recipient_addr",
          "type": "address"
        }
      ],
      "name": "getRecipient",
      "outputs": [
        {
          "internalType": "address",
          "name": "",
          "type": "address"
        },
        {
          "internalType": "string",
          "name": "",
          "type": "string"
        },
        {
          "internalType": "string",
          "name": "",
          "type": "string"
        },
        {
          "internalType": "bool",
          "name": "",
          "type": "bool"
        }
      ],
      "stateMutability": "view",
      "type": "function"
    },
    {
      "inputs": [
        {
          "internalType": "address",
          "name": "_hospital_addr",
          "type": "address"
        }
      ],
      "name": "getRecipientCount",
      "outputs": [
        {
          "internalType": "uint256",
          "name": "",
          "type": "uint256"
        }
      ],
      "stateMutability": "view",
      "type": "function"
    },
    {
      "inputs": [
        {
          "internalType": "address",
          "name": "_hospital_addr",
          "type": "address"
        },
        {
          "internalType": "uint256",
          "name": "i",
          "type": "uint256"
        }
      ],
      "name": "getRecipientDetail",
      "outputs": [
        {
          "internalType": "address",
          "name": "",
          "type": "address"
        },
        {
          "internalType": "string",
          "name": "",
          "type": "string"
        },
        {
          "internalType": "string",
          "name": "",
          "type": "string"
        }
      ],
      "stateMutability": "view",
      "type": "function"
    },
    {
      "inputs": [
        {
          "internalType": "address",
          "name": "_recipient_addr",
          "type": "address"
        }
      ],
      "name": "isMatchFound",
      "outputs": [
        {
          "internalType": "bool",
          "name": "",
          "type": "bool"
        }
      ],
      "stateMutability": "view",
      "type": "function"
    },
    {
      "inputs": [
        {
          "internalType": "address",
          "name": "_recipient_addr",
          "type": "address"
        }
      ],
      "name": "transplantMatch",
      "outputs": [],
      "stateMutability": "nonpayable",
      "type": "function"
    }
  ],
  "bytecode": "0x608060405234801561001057600080fd5b5061231f806100206000396000f3fe608060405234801561001057600080fd5b50600436106100935760003560e01c806396c590431161006657806396c59043146101495780639d0de0351461017c578063b02d6cf614610198578063c39aeabc146101c8578063f3f7bb52146101f857610093565b806362812a3914610098578063681bc108146100cb5780636b48a87d146100fd578063784c413d14610119575b600080fd5b6100b260048036038101906100ad91906119b9565b610214565b6040516100c29493929190611aa0565b60405180910390f35b6100e560048036038101906100e09190611b29565b6104cd565b6040516100f493929190611b69565b60405180910390f35b61011760048036038101906101129190611ce3565b610948565b005b610133600480360381019061012e91906119b9565b610c09565b6040516101409190611d6e565b60405180910390f35b610163600480360381019061015e91906119b9565b610c75565b6040516101739493929190611d89565b60405180910390f35b61019660048036038101906101919190611ddc565b610f32565b005b6101b260048036038101906101ad91906119b9565b611292565b6040516101bf9190611e8a565b60405180910390f35b6101e260048036038101906101dd91906119b9565b6112de565b6040516101ef9190611ea5565b60405180910390f35b610212600480360381019061020d91906119b9565b611336565b005b600060608060008060008673ffffffffffffffffffffffffffffffffffffffff1673ffffffffffffffffffffffffffffffffffffffff16815260200190815260200160002060040160019054906101000a900460ff1661027357600080fd5b6000808673ffffffffffffffffffffffffffffffffffffffff1673ffffffffffffffffffffffffffffffffffffffff16815260200190815260200160002060010160009054906101000a900473ffffffffffffffffffffffffffffffffffffffff166000808773ffffffffffffffffffffffffffffffffffffffff1673ffffffffffffffffffffffffffffffffffffffff1681526020019081526020016000206002016000808873ffffffffffffffffffffffffffffffffffffffff1673ffffffffffffffffffffffffffffffffffffffff1681526020019081526020016000206003016000808973ffffffffffffffffffffffffffffffffffffffff1673ffffffffffffffffffffffffffffffffffffffff16815260200190815260200160002060040160009054906101000a900460ff168280546103b290611eef565b80601f01602080910402602001604051908101604052809291908181526020018280546103de90611eef565b801561042b5780601f106104005761010080835404028352916020019161042b565b820191906000526020600020905b81548152906001019060200180831161040e57829003601f168201915b5050505050925081805461043e90611eef565b80601f016020809104026020016040519081016040528092919081815260200182805461046a90611eef565b80156104b75780601f1061048c576101008083540402835291602001916104b7565b820191906000526020600020905b81548152906001019060200180831161049a57829003601f168201915b5050505050915093509350935093509193509193565b6000606080600080600260008873ffffffffffffffffffffffffffffffffffffffff1673ffffffffffffffffffffffffffffffffffffffff168152602001908152602001600020868154811061052657610525611f20565b5b9060005260206000200160009054906101000a900473ffffffffffffffffffffffffffffffffffffffff1673ffffffffffffffffffffffffffffffffffffffff1673ffffffffffffffffffffffffffffffffffffffff16815260200190815260200160002060040160009054906101000a900460ff1661091857600080600260008873ffffffffffffffffffffffffffffffffffffffff1673ffffffffffffffffffffffffffffffffffffffff16815260200190815260200160002086815481106105f4576105f3611f20565b5b9060005260206000200160009054906101000a900473ffffffffffffffffffffffffffffffffffffffff1673ffffffffffffffffffffffffffffffffffffffff1673ffffffffffffffffffffffffffffffffffffffff16815260200190815260200160002060000160009054906101000a900473ffffffffffffffffffffffffffffffffffffffff16600080600260008973ffffffffffffffffffffffffffffffffffffffff1673ffffffffffffffffffffffffffffffffffffffff16815260200190815260200160002087815481106106d1576106d0611f20565b5b9060005260206000200160009054906101000a900473ffffffffffffffffffffffffffffffffffffffff1673ffffffffffffffffffffffffffffffffffffffff1673ffffffffffffffffffffffffffffffffffffffff168152602001908152602001600020600201600080600260008a73ffffffffffffffffffffffffffffffffffffffff1673ffffffffffffffffffffffffffffffffffffffff168152602001908152602001600020888154811061078d5761078c611f20565b5b9060005260206000200160009054906101000a900473ffffffffffffffffffffffffffffffffffffffff1673ffffffffffffffffffffffffffffffffffffffff1673ffffffffffffffffffffffffffffffffffffffff16815260200190815260200160002060030181805461080190611eef565b80601f016020809104026020016040519081016040528092919081815260200182805461082d90611eef565b801561087a5780601f1061084f5761010080835404028352916020019161087a565b820191906000526020600020905b81548152906001019060200180831161085d57829003601f168201915b5050505050915080805461088d90611eef565b80601f01602080910402602001604051908101604052809291908181526020018280546108b990611eef565b80156109065780601f106108db57610100808354040283529160200191610906565b820191906000526020600020905b8154815290600101906020018083116108e957829003601f168201915b50505050509050925092509250610941565b600060405180602001604052806000815250604051806020016040528060008152509250925092505b9250925092565b82600160008273ffffffffffffffffffffffffffffffffffffffff1673ffffffffffffffffffffffffffffffffffffffff16815260200190815260200160002060040160019054906101000a900460ff16156109a357600080fd5b836000808273ffffffffffffffffffffffffffffffffffffffff1673ffffffffffffffffffffffffffffffffffffffff16815260200190815260200160002060040160019054906101000a900460ff16156109fd57600080fd5b60006040518060c001604052808773ffffffffffffffffffffffffffffffffffffffff168152602001600073ffffffffffffffffffffffffffffffffffffffff16815260200186815260200185815260200160001515815260200160011515815250905080600160008873ffffffffffffffffffffffffffffffffffffffff1673ffffffffffffffffffffffffffffffffffffffff16815260200190815260200160002060008201518160000160006101000a81548173ffffffffffffffffffffffffffffffffffffffff021916908373ffffffffffffffffffffffffffffffffffffffff16021790555060208201518160010160006101000a81548173ffffffffffffffffffffffffffffffffffffffff021916908373ffffffffffffffffffffffffffffffffffffffff1602179055506040820151816002019081610b4491906120fb565b506060820151816003019081610b5a91906120fb565b5060808201518160040160006101000a81548160ff02191690831515021790555060a08201518160040160016101000a81548160ff0219169083151502179055509050506005869080600181540180825580915050600190039060005260206000200160009091909190916101000a81548173ffffffffffffffffffffffffffffffffffffffff021916908373ffffffffffffffffffffffffffffffffffffffff160217905550505050505050565b6000600360008373ffffffffffffffffffffffffffffffffffffffff1673ffffffffffffffffffffffffffffffffffffffff16815260200190815260200160002060010160009054906101000a900473ffffffffffffffffffffffffffffffffffffffff169050919050565b606080600080600160008673ffffffffffffffffffffffffffffffffffffffff1673ffffffffffffffffffffffffffffffffffffffff16815260200190815260200160002060040160019054906101000a900460ff16610cd457600080fd5b600160008673ffffffffffffffffffffffffffffffffffffffff1673ffffffffffffffffffffffffffffffffffffffff168152602001908152602001600020600201600160008773ffffffffffffffffffffffffffffffffffffffff1673ffffffffffffffffffffffffffffffffffffffff168152602001908152602001600020600301600160008873ffffffffffffffffffffffffffffffffffffffff1673ffffffffffffffffffffffffffffffffffffffff16815260200190815260200160002060040160009054906101000a900460ff16600160008973ffffffffffffffffffffffffffffffffffffffff1673ffffffffffffffffffffffffffffffffffffffff16815260200190815260200160002060010160009054906101000a900473ffffffffffffffffffffffffffffffffffffffff16838054610e1790611eef565b80601f0160208091040260200160405190810160405280929190818152602001828054610e4390611eef565b8015610e905780601f10610e6557610100808354040283529160200191610e90565b820191906000526020600020905b815481529060010190602001808311610e7357829003601f168201915b50505050509350828054610ea390611eef565b80601f0160208091040260200160405190810160405280929190818152602001828054610ecf90611eef565b8015610f1c5780601f10610ef157610100808354040283529160200191610f1c565b820191906000526020600020905b815481529060010190602001808311610eff57829003601f168201915b5050505050925093509350935093509193509193565b836000808273ffffffffffffffffffffffffffffffffffffffff1673ffffffffffffffffffffffffffffffffffffffff16815260200190815260200160002060040160019054906101000a900460ff1615610f8c57600080fd5b84600160008273ffffffffffffffffffffffffffffffffffffffff1673ffffffffffffffffffffffffffffffffffffffff16815260200190815260200160002060040160019054906101000a900460ff1615610fe757600080fd5b60006040518060c001604052808873ffffffffffffffffffffffffffffffffffffffff1681526020018773ffffffffffffffffffffffffffffffffffffffff168152602001868152602001858152602001600015158152602001600115158152509050806000808973ffffffffffffffffffffffffffffffffffffffff1673ffffffffffffffffffffffffffffffffffffffff16815260200190815260200160002060008201518160000160006101000a81548173ffffffffffffffffffffffffffffffffffffffff021916908373ffffffffffffffffffffffffffffffffffffffff16021790555060208201518160010160006101000a81548173ffffffffffffffffffffffffffffffffffffffff021916908373ffffffffffffffffffffffffffffffffffffffff160217905550604082015181600201908161112c91906120fb565b50606082015181600301908161114291906120fb565b5060808201518160040160006101000a81548160ff02191690831515021790555060a08201518160040160016101000a81548160ff0219169083151502179055509050506004879080600181540180825580915050600190039060005260206000200160009091909190916101000a81548173ffffffffffffffffffffffffffffffffffffffff021916908373ffffffffffffffffffffffffffffffffffffffff160217905550600260008773ffffffffffffffffffffffffffffffffffffffff1673ffffffffffffffffffffffffffffffffffffffff168152602001908152602001600020879080600181540180825580915050600190039060005260206000200160009091909190916101000a81548173ffffffffffffffffffffffffffffffffffffffff021916908373ffffffffffffffffffffffffffffffffffffffff16021790555050505050505050565b6000600260008373ffffffffffffffffffffffffffffffffffffffff1673ffffffffffffffffffffffffffffffffffffffff168152602001908152602001600020805490509050919050565b60008060008373ffffffffffffffffffffffffffffffffffffffff1673ffffffffffffffffffffffffffffffffffffffff16815260200190815260200160002060040160009054906101000a900460ff169050919050565b60005b60058054905081101561194357600160006005838154811061135e5761135d611f20565b5b9060005260206000200160009054906101000a900473ffffffffffffffffffffffffffffffffffffffff1673ffffffffffffffffffffffffffffffffffffffff1673ffffffffffffffffffffffffffffffffffffffff16815260200190815260200160002060040160009054906101000a900460ff161580156114eb575060016000600583815481106113f4576113f3611f20565b5b9060005260206000200160009054906101000a900473ffffffffffffffffffffffffffffffffffffffff1673ffffffffffffffffffffffffffffffffffffffff1673ffffffffffffffffffffffffffffffffffffffff16815260200190815260200160002060020160405160200161146c919061225b565b604051602081830303815290604052805190602001206000808473ffffffffffffffffffffffffffffffffffffffff1673ffffffffffffffffffffffffffffffffffffffff1681526020019081526020016000206002016040516020016114d3919061225b565b60405160208183030381529060405280519060200120145b80156116015750600160006005838154811061150a57611509611f20565b5b9060005260206000200160009054906101000a900473ffffffffffffffffffffffffffffffffffffffff1673ffffffffffffffffffffffffffffffffffffffff1673ffffffffffffffffffffffffffffffffffffffff168152602001908152602001600020600301604051602001611582919061225b565b604051602081830303815290604052805190602001206000808473ffffffffffffffffffffffffffffffffffffffff1673ffffffffffffffffffffffffffffffffffffffff1681526020019081526020016000206003016040516020016115e9919061225b565b60405160208183030381529060405280519060200120145b156119305760405180606001604052808373ffffffffffffffffffffffffffffffffffffffff1681526020016005838154811061164157611640611f20565b5b9060005260206000200160009054906101000a900473ffffffffffffffffffffffffffffffffffffffff1673ffffffffffffffffffffffffffffffffffffffff16815260200160011515815250600360008473ffffffffffffffffffffffffffffffffffffffff1673ffffffffffffffffffffffffffffffffffffffff16815260200190815260200160002060008201518160000160006101000a81548173ffffffffffffffffffffffffffffffffffffffff021916908373ffffffffffffffffffffffffffffffffffffffff16021790555060208201518160010160006101000a81548173ffffffffffffffffffffffffffffffffffffffff021916908373ffffffffffffffffffffffffffffffffffffffff16021790555060408201518160010160146101000a81548160ff02191690831515021790555090505081600160006005848154811061179757611796611f20565b5b9060005260206000200160009054906101000a900473ffffffffffffffffffffffffffffffffffffffff1673ffffffffffffffffffffffffffffffffffffffff1673ffffffffffffffffffffffffffffffffffffffff16815260200190815260200160002060010160006101000a81548173ffffffffffffffffffffffffffffffffffffffff021916908373ffffffffffffffffffffffffffffffffffffffff16021790555060016000808473ffffffffffffffffffffffffffffffffffffffff1673ffffffffffffffffffffffffffffffffffffffff16815260200190815260200160002060040160006101000a81548160ff0219169083151502179055506001806000600584815481106118b0576118af611f20565b5b9060005260206000200160009054906101000a900473ffffffffffffffffffffffffffffffffffffffff1673ffffffffffffffffffffffffffffffffffffffff1673ffffffffffffffffffffffffffffffffffffffff16815260200190815260200160002060040160006101000a81548160ff0219169083151502179055505b808061193b906122a1565b915050611339565b5050565b6000604051905090565b600080fd5b600080fd5b600073ffffffffffffffffffffffffffffffffffffffff82169050919050565b60006119868261195b565b9050919050565b6119968161197b565b81146119a157600080fd5b50565b6000813590506119b38161198d565b92915050565b6000602082840312156119cf576119ce611951565b5b60006119dd848285016119a4565b91505092915050565b6119ef8161197b565b82525050565b600081519050919050565b600082825260208201905092915050565b60005b83811015611a2f578082015181840152602081019050611a14565b60008484015250505050565b6000601f19601f8301169050919050565b6000611a57826119f5565b611a618185611a00565b9350611a71818560208601611a11565b611a7a81611a3b565b840191505092915050565b60008115159050919050565b611a9a81611a85565b82525050565b6000608082019050611ab560008301876119e6565b8181036020830152611ac78186611a4c565b90508181036040830152611adb8185611a4c565b9050611aea6060830184611a91565b95945050505050565b6000819050919050565b611b0681611af3565b8114611b1157600080fd5b50565b600081359050611b2381611afd565b92915050565b60008060408385031215611b4057611b3f611951565b5b6000611b4e858286016119a4565b9250506020611b5f85828601611b14565b9150509250929050565b6000606082019050611b7e60008301866119e6565b8181036020830152611b908185611a4c565b90508181036040830152611ba48184611a4c565b9050949350505050565b600080fd5b600080fd5b7f4e487b7100000000000000000000000000000000000000000000000000000000600052604160045260246000fd5b611bf082611a3b565b810181811067ffffffffffffffff82111715611c0f57611c0e611bb8565b5b80604052505050565b6000611c22611947565b9050611c2e8282611be7565b919050565b600067ffffffffffffffff821115611c4e57611c4d611bb8565b5b611c5782611a3b565b9050602081019050919050565b82818337600083830152505050565b6000611c86611c8184611c33565b611c18565b905082815260208101848484011115611ca257611ca1611bb3565b5b611cad848285611c64565b509392505050565b600082601f830112611cca57611cc9611bae565b5b8135611cda848260208601611c73565b91505092915050565b600080600060608486031215611cfc57611cfb611951565b5b6000611d0a868287016119a4565b935050602084013567ffffffffffffffff811115611d2b57611d2a611956565b5b611d3786828701611cb5565b925050604084013567ffffffffffffffff811115611d5857611d57611956565b5b611d6486828701611cb5565b9150509250925092565b6000602082019050611d8360008301846119e6565b92915050565b60006080820190508181036000830152611da38187611a4c565b90508181036020830152611db78186611a4c565b9050611dc66040830185611a91565b611dd360608301846119e6565b95945050505050565b60008060008060808587031215611df657611df5611951565b5b6000611e04878288016119a4565b9450506020611e15878288016119a4565b935050604085013567ffffffffffffffff811115611e3657611e35611956565b5b611e4287828801611cb5565b925050606085013567ffffffffffffffff811115611e6357611e62611956565b5b611e6f87828801611cb5565b91505092959194509250565b611e8481611af3565b82525050565b6000602082019050611e9f6000830184611e7b565b92915050565b6000602082019050611eba6000830184611a91565b92915050565b7f4e487b7100000000000000000000000000000000000000000000000000000000600052602260045260246000fd5b60006002820490506001821680611f0757607f821691505b602082108103611f1a57611f19611ec0565b5b50919050565b7f4e487b7100000000000000000000000000000000000000000000000000000000600052603260045260246000fd5b60008190508160005260206000209050919050565b60006020601f8301049050919050565b600082821b905092915050565b600060088302611fb17fffffffffffffffffffffffffffffffffffffffffffffffffffffffffffffffff82611f74565b611fbb8683611f74565b95508019841693508086168417925050509392505050565b6000819050919050565b6000611ff8611ff3611fee84611af3565b611fd3565b611af3565b9050919050565b6000819050919050565b61201283611fdd565b61202661201e82611fff565b848454611f81565b825550505050565b600090565b61203b61202e565b612046818484612009565b505050565b5b8181101561206a5761205f600082612033565b60018101905061204c565b5050565b601f8211156120af5761208081611f4f565b61208984611f64565b81016020851015612098578190505b6120ac6120a485611f64565b83018261204b565b50505b505050565b600082821c905092915050565b60006120d2600019846008026120b4565b1980831691505092915050565b60006120eb83836120c1565b9150826002028217905092915050565b612104826119f5565b67ffffffffffffffff81111561211d5761211c611bb8565b5b6121278254611eef565b61213282828561206e565b600060209050601f8311600181146121655760008415612153578287015190505b61215d85826120df565b8655506121c5565b601f19841661217386611f4f565b60005b8281101561219b57848901518255600182019150602085019450602081019050612176565b868310156121b857848901516121b4601f8916826120c1565b8355505b6001600288020188555050505b505050505050565b600081905092915050565b600081546121e581611eef565b6121ef81866121cd565b9450600182166000811461220a576001811461221f57612252565b60ff1983168652811515820286019350612252565b61222885611f4f565b60005b8381101561224a5781548189015260018201915060208101905061222b565b838801955050505b50505092915050565b600061226782846121d8565b915081905092915050565b7f4e487b7100000000000000000000000000000000000000000000000000000000600052601160045260246000fd5b60006122ac82611af3565b91507fffffffffffffffffffffffffffffffffffffffffffffffffffffffffffffffff82036122de576122dd612272565b5b60018201905091905056fea2646970667358221220da1b2ad79adf36a157b6fa9938244a71c6480b84de1367a6e19b48934e659a8f64736f6c63430008130033",
  "linkReferences": {},
  "deployedLinkReferences": {}
}